:020000040800F2
:10000000F80A002089010008910100089301000806
:100010009501000897010008990100080000000000
:100020000000000000000000000000009B0100082C
:100030009D010008000000009F010008A1010008C8
:10004000A3010008A3010008A3010008A301000800
:10005000A3010008A3010008A3010008A3010008F0
:10006000A3010008A3010008A3010008A3010008E0
:10007000A3010008A3010008A3010008A3010008D0
:10008000A3010008A3010008A3010008A3010008C0
:10009000A3010008A3010008A3010008A3010008B0
:1000A000A3010008A3010008A3010008A3010008A0
:1000B000A3010008A3010008A3010008A301000890
:1000C000A3010008A3010008A3010008A301000880
:1000D000A3010008A3010008A3010008A301000870
:1000E000A3010008A3010008A301000800F002F822
:1000F00000F03AF80AA090E8000C82448344AAF188
:100100000107DA4501D100F02FF8AFF2090EBAE885
:100110000F0013F0010F18BFFB1A43F0010318473B
:10012000BC100000DC100000103A24BF78C878C171
:10013000FAD8520724BF30C830C144BF04680C60ED
:10014000704700000023002400250026103A28BF35
:1001500078C1FBD8520728BF30C148BF0B60704739
:100160001FB51FBD10B510BD00F031F81146FFF7E7
:10017000F7FF00F05FFC00F04FF803B4FFF7F2FF69
:1001800003BC00F057F800000948804709480047C1
:10019000FEE7FEE7FEE7FEE7FEE7FEE7FEE7FEE737
:1001A000FEE7FEE704480549054A064B7047000094
:1001B00049090008ED000008F8040020F80A0020B2
:1001C000F8060020F8060020704770477047754613
:1001D00000F02CF8AE4605006946534620F00700B3
:1001E000854618B020B5FFF7DDFFBDE820404FF091
:1001F00000064FF000074FF000084FF0000BAC4630
:10020000ACE8C009ACE8C009ACE8C009ACE8C0097A
:1002100021F007018D46704710B50446AFF300800A
:100220002046BDE81040FFF7A8BF00000048704717
:100230006800002001491820ABBEFEE7260002003E
:1002400070470000044900200022B2F5806F08BF0B
:10025000704788540132F8E7F200002010B5814958
:1002600000230A6842F004020A6094490A8922F0D5
:1002700007020A8148220A854FF47A728A850A8821
:1002800042F001020A800022834206D28C8CB4F52F
:100290007A7FF9D18A840133F6E7088820F00100DB
:1002A000088010BDF0B58549924B07244FF0000C33
:1002B000012600229F6827F480479F6067B2B7F14C
:1002C000FF3F29DD1F6827F070471F601F6847F058
:1002D00000471F609F6847F400479F60A1F824C053
:1002E0000F8847F001070F808F8C0A2FFCD39F687F
:1002F00047F480479F608F8C142FFCD35F680D8874
:1003000025F001053F040D80E5B2A4F1010406FAD1
:1003100005F548BF2A43CDE7002400288C840C88CB
:1003200044F001040C801C6824F070441C601C68BC
:1003300044F0A0441C609C6844F4004508BF24F4C9
:1003400000459D60888C0A28FCD3986840F4804062
:100350009860888C1428FCD3088820F0010008805D
:10036000D0B2F0BD70B5554A6249002300248D68B3
:10037000082C25F480458D601ED09384158845F0A7
:100380000105158000FA04F52D068D6845F4004638
:1003900058BF25F400468E60958C0A2DFCD38D68DD
:1003A00045F480458D60958C142DFCD3158801345F
:1003B00025F001051580DAE7086820F07040086034
:1003C000086840F000400860886840F40040886099
:1003D00000209084108840F001001080908C0A2842
:1003E000FCD3886840F480408860908C1428FCD34B
:1003F000108820F001001080086820F0704008602C
:10040000086840F0A0400860002070BD10B5154994
:100410004FF6F0730A6842F004020A6027490A891D
:1004200022F007020A8100220A858B85224B1C6874
:1004300044F480441C601C6824F400441C608A84DA
:100440000A8842F001020A808A8C0A2AFCD30A88B0
:1004500040F0D00022F001020A80FFF783FF002065
:1004600010BD00BF1C10024013490022086820F490
:1004700080400860086820F4004008600F488284CB
:10048000028842F001020280828C052AFCD30A68AD
:1004900042F480420A60828C0A2AFCD30A6842F441
:1004A00000420A60818C3C29FCD3018821F00101C3
:1004B00001800020704700BF0C0C01400008004084
:1004C0000C48016821F070610160016841F0A06191
:1004D0000160016821F070410160016841F0A041B4
:1004E0000160816841F400418160816841F480418C
:1004F00081607047040C01402DE9F041394C1546EC
:10050000884606463B211522E01C00F06DF8B4F841
:10051000030000BA000C3080B4F8050000BA000CEB
:100520007080B4F8070000BA000CB080B4F80B007B
:1005300000BA000C2880B4F80D0000BA000C6880E6
:10054000B4F80F0000BA000CA880B4F91100B4F997
:100550001360B4F9155000F07FFC0746207880380E
:1005600000F07AFC4FF06E5100F08EFC4FF07E519F
:1005700000F0F4FB394600F087FC00F051FCA8F8CD
:100580000000304600F068FC06466078803800F0D5
:1005900063FC4FF06E5100F077FC4FF07E5100F09D
:1005A000DDFB314600F070FC00F03AFCA8F80200D8
:1005B000284600F051FC0546A078803800F04CFC3D
:1005C0004FF06E5100F060FC4FF07E5100F0C6FB22
:1005D000294600F059FC00F023FCA8F80400BDE80F
:1005E000F08100BFDA000020F8B50446002015466F
:1005F0000E460027FFF70AFF46F08000FFF7B2FE25
:10060000FFF732FF0120FFF701FF013DFEB2B542C7
:1006100005DD0020FFF746FEA0550137F6E7012073
:10062000FFF740FE6055BDE8F840FFF71DBF000032
:100630002DE9F0470D468046FFF704FEDFF8F8A6E7
:10064000C5F1000900214FF0010C6FF0700E8029F8
:100650001ED0A1EB080600277643402F16D00EEAE5
:10066000071207F0070409EB070501370A4405FBE9
:1006700005650CFA04F41AF80230E22D23EA0400AE
:1006800038BF43EA04000AF80200E6E70131DEE77A
:10069000BDE8F04700F092B82DE9FC4FFE2801922A
:1006A00019D0FF2830D101986FF07003814C421DA2
:1006B000D0B202F0070203EA0010012303FA02F2AB
:1006C0000023032B53D8CDB2013301310544665DBD
:1006D00016436655F5E701986FF07003754C421D9F
:1006E000D0B202F0070203EA0010012303FA02F27B
:1006F0000023D243032B3AD8CDB201330131054454
:10070000665D16406655F5E70823DFF82CA64FEA2C
:10071000C0084FF0010903EBC0020092009A5FFA93
:1007200088F0824223D9134ACCB2002332F810B0A9
:100730000198082B17D000F0F80600F007052BFAF7
:1007400003FE0133013004EB061609FA05F55FEAF2
:10075000CE721AF8067047EA050C08BF27EA050CA6
:100760000AF806C0E5E708F101080131D6E7BDE85F
:10077000FC8F00BF0A110008F8B5724E05460E4FF7
:100780000C46308840F0010030806CB115F8010B48
:1007900037F81000B085B08D4008B0864FF49670E1
:1007A000FFF75CFD013CF0E70020B086308820F0C8
:1007B00001003080F8BD00BF1C000020B0B53D4DE9
:1007C0000024B4F5806F08BFB0BD285D00F0F8F9D3
:1007D0000134F6E72DE9F0470546FE20984692469B
:1007E0000F46002D48BFFF20FFF756FFA8F1010478
:1007F0004FF00A0904EB840007EB4000471D002C72
:1008000011D495FBF9F606EB8600A5EB4000002815
:1008100000D54042C0B2F9B25246FFF73DFF013C5D
:100820000A3F3546EBE7B8F1050F98BF00F004F832
:10083000BDE8F047FFF7C2BFF0B51E4B0020012115
:100840006FF0700E4FF0400C802808BFF0BD0025FF
:100850000026402D2BD0C7B27F2F00D04FB90EEA13
:10086000051405F00707044401FA07F71A5D3A4337
:100870001A5506F07F073F2F00D04FB90EEA051436
:1008800005F00702044401FA02F21F5D3A431A55CB
:10089000402809D12C0105F007026CF3060401FA87
:1008A00002F21F5D3A431A5501360135D1E7013096
:1008B000CAE700BFF20000202048016841F00101B2
:1008C0000160016841F0020101601D48016821F0EA
:1008D00070610160016841F000610160016841F0F0
:1008E000007101601748018921F00701018123216E
:1008F000018541F6DC51818540F6EE618186018CEF
:1009000041F001010184B0F8441041F40041A0F825
:100910004410018B41F060010183018B41F008011B
:100920000183018841F080010180018841F00101CB
:100930000180018821F00101018070471C100240F4
:10094000000801400004004082B09648354A016822
:1009500041F00101016041681140334A4160016882
:1009600011400160016821F480210160416821F497
:10097000FE0141604FF41F0181600021019100914F
:10098000016841F480310160016801F40031009197
:10099000019901310191009919B90199B1F5A06F3F
:1009A000F2D10168890354BF00210121009100990F
:1009B000012930D11D490A6842F010020A600A6814
:1009C00022F003020A600A6842F002020A604168EB
:1009D000416041684160416841F480614160416823
:1009E00021F47C114160416841F4E81141600168E3
:1009F00041F08071016001688901FCD5416821F0F6
:100A000003014160416841F002014160416801F029
:100A10000C010829FAD106484FF00061016002B0CC
:100A2000704700BF0000FFF8FFFFF6FE0020024005
:100A300008ED00E0FFF788FF5A485B4D016841F47C
:100A400080210160016841F480310160816941F0D9
:100A50000C0181615549D5F8FC038B4620F07040AC
:100A6000C5F8FC03D5F8FC0340F00040C5F8FC03D2
:100A7000486840F0800048604D4928686FF31320B3
:100A80002860286808432860FFF716FF00F0B4F8D4
:100A9000FFF716FD47480A21FFF76EFEFFF7D2FB6E
:100AA000A868454C454E4FF0010920F4E05004F190
:100AB000060804F10C0AA860A86840F48060A860E9
:100AC0005846DBF8000000060FD4A86820F4E05078
:100AD000A860FFF7B7FB4FF4FA70FFF7BFFB09F10F
:100AE00001095FFA89F0032805D85FFA89F0022826
:100AF00032D00128E4D1A8684146524640F4006053
:100B0000A8602046FFF7F8FCB4F9000004210A228F
:100B100005230A27B047B4F9020004211422052353
:100B2000B047B4F9040004211E220523B047B4F9EC
:100B30000C0044210A220523B047B4F90E004421D9
:100B400014220523B047B4F9100044211E220523C6
:100B5000B0474FF0010921E0A8684146524620F411
:100B6000E050A860A86840F48050A8602046FFF7D5
:100B7000C3FCB4F90200FA22B4F9001090FBF2F0C1
:100B80004FF4FA7291FBF2F14030C1F12001C0B292
:100B9000C9B2FFF74DFD4FF0020914273846FFF7A1
:100BA0005DFB8DE70010024004080140080C014085
:100BB0000022020000000020C8000020D507000825
:100BC00010B5654A0121092928BF10BD43B2013182
:100BD0004000B3F1FF3F4FF08003C8BF4FF4000364
:100BE000146823431360136843F0200313601368F1
:100BF00043F400131360E6E7F8B54B4C4B4900256E
:100C00000026206808434A4920602068084043F2D3
:100C100030312060206808434CF6C04120602068D5
:100C200088432060206940F480202061206940F4DE
:100C300000302061B5EB962F04D10020FFF7C0FFF4
:100C40000136F7E720693B4D40F002002061AE20FD
:100C5000A847D520A8478020A847A820A8473F201C
:100C6000A847D320A84700200024A8474020A84731
:100C70008D20A8471420A8472020A8470020A84777
:100C8000A120A847C820A847DA20A8471220A847D3
:100C90008120A8478F20A847D920A847F120A8473E
:100CA000DB20A8474020A847A420A847A620A847A3
:100CB000AF20A847204D05204FF0010C6FF0700EBB
:100CC000802C27D0B4FBF0F3002603EB8303E31A58
:100CD000402E1DD04BB90EEA061106F0070721443D
:100CE0000CFA07F76A5C3A436A54F1B2B1FBF0F2CE
:100CF00002EB8202891A09D10EEA061206F00701F8
:100D000022440CFA01F1AF5C3943A9540136DFE704
:100D10000134D5E70024B4F5806F08BFF8BD285D25
:100D2000FFF74EFF0134F6E70008014000003030C5
:100D3000FFFF3F3F3D0D0008F200002010B5064CBC
:100D4000216841F400212160FFF73AFF206840F05C
:100D50000800206010BD00BF1008014090EA010F9C
:100D600048BF81F0004100F16281421A3CBF801A05
:100D700089184FEAD052A2EBD1534FF07F4C1CEAB6
:100D8000410F18BF9CEA026F00F03B804FF0004C0F
:100D90004CEA00204CEA012121FA03FC10EB0C0C78
:100DA0001ED202F1FF325FEA1C2040EBC25038BF76
:100DB00070471CF07F0F4FEA400C18BFBCF17F4F0B
:100DC00038BF7047C3F12003994008BF20F00100ED
:100DD000BCF17F4F38BF7047A0F1C04000F01BB995
:100DE0004FEA3C00000A40EBC25028BF1CF0FF0F46
:100DF0004FEA400CE6D018BFBCF17F4F38BF7047B8
:100E0000EAE79CEA026F05D010EA5C0F08BF00F029
:100E10000040704710B500F0B8F800BF64FBBE3E5C
:100E200041000B0ED3F19E0208D950F400034FEAA3
:100E3000032323FA02F048BF4042704710B500F088
:100E4000A4F800BF49922480002070476FF0004250
:100E500082EA20007047000010F0004148BF404285
:100E6000B0FA80F310FA03F2C3F19D030BD051EAFC
:100E7000C35101EB1220530638BF704700F1010047
:100E800008BF20F0010070474FF47F0C1CEAD0121D
:100E90001EBF1CEAD11392EA0C0F93EA0C0F00F06C
:100EA000478090EA010F48BF42F480724FF0004C37
:100EB0004CEA00204CEA012102EB0302A0FB0113E3
:100EC000A2F50002002918BF43F001035B0028BF10
:100ED0004FEA330342EB22425FEA132C4CEBC25041
:100EE0002EBFBCEB436FB2F57C0F70474FEA036C2B
:100EF000BCF1004F08BF20F00100B2F57C0F38BFF5
:100F000070470BD582F0FF0212F5803FC8BF7047D3
:100F100000F1C040D8BF00F00040704700F5000C61
:100F20005FEA4C0C48BF7047B0F1C04000F073B8A6
:100F30000CEAD11390EA010F48BF42F48072624577
:100F400038BF634504D280EA010000F000407047DA
:100F500010B500F01AF800BF8900013E00F007B894
:100F600000F009B85FEA410C5FEA1C6C08D080EA27
:100F7000010000F050B85FEA400C5FEA1C6CF6D14B
:100F80004FF00040A0F5800070470EF1020E2EF0E9
:100F9000030E5EF8044B244204D44FEA4102B2F13E
:100FA0007F4F11D84FEA4003B3F17F4F0CD80ED1D9
:100FB0004FEAD07C0CEB4C0C0CF1020CB2F17F4FE1
:100FC00008BF4CEBD17C04E04FF0080C01E04FEA85
:100FD000D17C0CEB4C0324FA03F404F00704B4F1C5
:100FE000040C06D20EEB840CBDE810404CF0010C52
:100FF0006047DFE80CF0070802024FF00040A0F560
:10100000800010BD0846420018BFD2F1807288BF30
:1010100000F0004010BDFF2141EAD050C0057047EC
:1010200090EA010F48BF81F000413FF59EAE421AA1
:1010300004D882F00042A0EB020011444FEAD052E3
:10104000A2EBD1534FF07F4C1CEA410F18BF9CEA32
:10105000026F4AD04FF0004C4CEA00204CEA0121CC
:1010600021FA03FCB0EB0C0C0FD412F0FE0F36D0BB
:101070005FEA4C001DD5001240EBC25038BF7047EC
:101080001CF03F0F18BF70470BE05FEA1C20A2F175
:10109000010240EBC25038BF70471CF07F0F18BFF1
:1010A0007047C3F12003994014BF401E20F0010097
:1010B00070474FEA1223800808BF7047B0FA80FCDF
:1010C000A2EB0C02CCF1280C60FA0CF093EA122F80
:1010D00004BF00EBC25070474FEAC3707047130A59
:1010E0005FEADC1008BF7047F6E79CEA026F04D0A5
:1010F00010EA5C0F08BF0020704710B5FFF745FFEE
:1011000040DFF63E81F0004070477E00FF00810026
:101110008100FF007E000000000084008200FF00CC
:10112000FF008000800000000000C200E300B1006A
:1011300099008F008600000000004200C300890073
:101140008900FF0076000000000030002800240025
:10115000FE00FF002000000000004000CF008F00D4
:101160008900F9007100000000007E00FF00890086
:101170008900F90070000000000001000100E1009A
:10118000FD001F000300000000007600FF00890042
:101190008900FF007600000000000E009F00910013
:1011A0009100FF007E0000000000CC00CC00000099
:1011B00000000000000000000000CC00CC00000097
:1011C00000000000000000000000000010002800E7
:1011D000280044004400820082000000FC11000846
:1011E00000000020680000002801000864120008C8
:1011F00068000020900A0000440100080A1313113F
:10120000130F0A0A0A1313141116160C0C141413D4
:10121000110F0F131311130F0000DC1D2F1C9A1A4E
:101220001B19B3175E161D15EE13CF12C111C21094
:10123000D20FEE0E170E4D0D8E0CDA0B2F0B8F0A00
:10124000F7096809E1086108E90777070C07A706AD
:101250004706ED0598054705FB04B4047004310406
:04126000F403000093
:040000050800018965
:00000001FF
